{
  "contractName": "LLG_Token",
  "abi": [
    {
      "inputs": [],
      "stateMutability": "nonpayable",
      "type": "constructor"
    },
    {
      "anonymous": false,
      "inputs": [
        {
          "indexed": true,
          "internalType": "address",
          "name": "owner",
          "type": "address"
        },
        {
          "indexed": true,
          "internalType": "address",
          "name": "spender",
          "type": "address"
        },
        {
          "indexed": false,
          "internalType": "uint256",
          "name": "value",
          "type": "uint256"
        }
      ],
      "name": "Approval",
      "type": "event"
    },
    {
      "anonymous": false,
      "inputs": [
        {
          "indexed": false,
          "internalType": "address",
          "name": "account",
          "type": "address"
        }
      ],
      "name": "Paused",
      "type": "event"
    },
    {
      "anonymous": false,
      "inputs": [
        {
          "indexed": true,
          "internalType": "bytes32",
          "name": "role",
          "type": "bytes32"
        },
        {
          "indexed": true,
          "internalType": "bytes32",
          "name": "previousAdminRole",
          "type": "bytes32"
        },
        {
          "indexed": true,
          "internalType": "bytes32",
          "name": "newAdminRole",
          "type": "bytes32"
        }
      ],
      "name": "RoleAdminChanged",
      "type": "event"
    },
    {
      "anonymous": false,
      "inputs": [
        {
          "indexed": true,
          "internalType": "bytes32",
          "name": "role",
          "type": "bytes32"
        },
        {
          "indexed": true,
          "internalType": "address",
          "name": "account",
          "type": "address"
        },
        {
          "indexed": true,
          "internalType": "address",
          "name": "sender",
          "type": "address"
        }
      ],
      "name": "RoleGranted",
      "type": "event"
    },
    {
      "anonymous": false,
      "inputs": [
        {
          "indexed": true,
          "internalType": "bytes32",
          "name": "role",
          "type": "bytes32"
        },
        {
          "indexed": true,
          "internalType": "address",
          "name": "account",
          "type": "address"
        },
        {
          "indexed": true,
          "internalType": "address",
          "name": "sender",
          "type": "address"
        }
      ],
      "name": "RoleRevoked",
      "type": "event"
    },
    {
      "anonymous": false,
      "inputs": [
        {
          "indexed": true,
          "internalType": "address",
          "name": "from",
          "type": "address"
        },
        {
          "indexed": true,
          "internalType": "address",
          "name": "to",
          "type": "address"
        },
        {
          "indexed": false,
          "internalType": "uint256",
          "name": "value",
          "type": "uint256"
        }
      ],
      "name": "Transfer",
      "type": "event"
    },
    {
      "anonymous": false,
      "inputs": [
        {
          "indexed": false,
          "internalType": "address",
          "name": "account",
          "type": "address"
        }
      ],
      "name": "Unpaused",
      "type": "event"
    },
    {
      "inputs": [],
      "name": "DEFAULT_ADMIN_ROLE",
      "outputs": [
        {
          "internalType": "bytes32",
          "name": "",
          "type": "bytes32"
        }
      ],
      "stateMutability": "view",
      "type": "function"
    },
    {
      "inputs": [
        {
          "internalType": "address",
          "name": "owner",
          "type": "address"
        },
        {
          "internalType": "address",
          "name": "spender",
          "type": "address"
        }
      ],
      "name": "allowance",
      "outputs": [
        {
          "internalType": "uint256",
          "name": "",
          "type": "uint256"
        }
      ],
      "stateMutability": "view",
      "type": "function"
    },
    {
      "inputs": [
        {
          "internalType": "address",
          "name": "spender",
          "type": "address"
        },
        {
          "internalType": "uint256",
          "name": "amount",
          "type": "uint256"
        }
      ],
      "name": "approve",
      "outputs": [
        {
          "internalType": "bool",
          "name": "",
          "type": "bool"
        }
      ],
      "stateMutability": "nonpayable",
      "type": "function"
    },
    {
      "inputs": [
        {
          "internalType": "address",
          "name": "account",
          "type": "address"
        }
      ],
      "name": "balanceOf",
      "outputs": [
        {
          "internalType": "uint256",
          "name": "",
          "type": "uint256"
        }
      ],
      "stateMutability": "view",
      "type": "function"
    },
    {
      "inputs": [
        {
          "internalType": "uint256",
          "name": "amount",
          "type": "uint256"
        }
      ],
      "name": "burn",
      "outputs": [],
      "stateMutability": "nonpayable",
      "type": "function"
    },
    {
      "inputs": [
        {
          "internalType": "address",
          "name": "account",
          "type": "address"
        },
        {
          "internalType": "uint256",
          "name": "amount",
          "type": "uint256"
        }
      ],
      "name": "burnFrom",
      "outputs": [],
      "stateMutability": "nonpayable",
      "type": "function"
    },
    {
      "inputs": [],
      "name": "decimals",
      "outputs": [
        {
          "internalType": "uint8",
          "name": "",
          "type": "uint8"
        }
      ],
      "stateMutability": "view",
      "type": "function"
    },
    {
      "inputs": [
        {
          "internalType": "address",
          "name": "spender",
          "type": "address"
        },
        {
          "internalType": "uint256",
          "name": "subtractedValue",
          "type": "uint256"
        }
      ],
      "name": "decreaseAllowance",
      "outputs": [
        {
          "internalType": "bool",
          "name": "",
          "type": "bool"
        }
      ],
      "stateMutability": "nonpayable",
      "type": "function"
    },
    {
      "inputs": [
        {
          "internalType": "bytes32",
          "name": "role",
          "type": "bytes32"
        }
      ],
      "name": "getRoleAdmin",
      "outputs": [
        {
          "internalType": "bytes32",
          "name": "",
          "type": "bytes32"
        }
      ],
      "stateMutability": "view",
      "type": "function"
    },
    {
      "inputs": [
        {
          "internalType": "bytes32",
          "name": "role",
          "type": "bytes32"
        },
        {
          "internalType": "uint256",
          "name": "index",
          "type": "uint256"
        }
      ],
      "name": "getRoleMember",
      "outputs": [
        {
          "internalType": "address",
          "name": "",
          "type": "address"
        }
      ],
      "stateMutability": "view",
      "type": "function"
    },
    {
      "inputs": [
        {
          "internalType": "bytes32",
          "name": "role",
          "type": "bytes32"
        }
      ],
      "name": "getRoleMemberCount",
      "outputs": [
        {
          "internalType": "uint256",
          "name": "",
          "type": "uint256"
        }
      ],
      "stateMutability": "view",
      "type": "function"
    },
    {
      "inputs": [
        {
          "internalType": "bytes32",
          "name": "role",
          "type": "bytes32"
        },
        {
          "internalType": "address",
          "name": "account",
          "type": "address"
        }
      ],
      "name": "grantRole",
      "outputs": [],
      "stateMutability": "nonpayable",
      "type": "function"
    },
    {
      "inputs": [
        {
          "internalType": "bytes32",
          "name": "role",
          "type": "bytes32"
        },
        {
          "internalType": "address",
          "name": "account",
          "type": "address"
        }
      ],
      "name": "hasRole",
      "outputs": [
        {
          "internalType": "bool",
          "name": "",
          "type": "bool"
        }
      ],
      "stateMutability": "view",
      "type": "function"
    },
    {
      "inputs": [
        {
          "internalType": "address",
          "name": "spender",
          "type": "address"
        },
        {
          "internalType": "uint256",
          "name": "addedValue",
          "type": "uint256"
        }
      ],
      "name": "increaseAllowance",
      "outputs": [
        {
          "internalType": "bool",
          "name": "",
          "type": "bool"
        }
      ],
      "stateMutability": "nonpayable",
      "type": "function"
    },
    {
      "inputs": [],
      "name": "name",
      "outputs": [
        {
          "internalType": "string",
          "name": "",
          "type": "string"
        }
      ],
      "stateMutability": "view",
      "type": "function"
    },
    {
      "inputs": [],
      "name": "paused",
      "outputs": [
        {
          "internalType": "bool",
          "name": "",
          "type": "bool"
        }
      ],
      "stateMutability": "view",
      "type": "function"
    },
    {
      "inputs": [
        {
          "internalType": "bytes32",
          "name": "role",
          "type": "bytes32"
        },
        {
          "internalType": "address",
          "name": "account",
          "type": "address"
        }
      ],
      "name": "renounceRole",
      "outputs": [],
      "stateMutability": "nonpayable",
      "type": "function"
    },
    {
      "inputs": [
        {
          "internalType": "bytes32",
          "name": "role",
          "type": "bytes32"
        },
        {
          "internalType": "address",
          "name": "account",
          "type": "address"
        }
      ],
      "name": "revokeRole",
      "outputs": [],
      "stateMutability": "nonpayable",
      "type": "function"
    },
    {
      "inputs": [],
      "name": "symbol",
      "outputs": [
        {
          "internalType": "string",
          "name": "",
          "type": "string"
        }
      ],
      "stateMutability": "view",
      "type": "function"
    },
    {
      "inputs": [],
      "name": "totalSupply",
      "outputs": [
        {
          "internalType": "uint256",
          "name": "",
          "type": "uint256"
        }
      ],
      "stateMutability": "view",
      "type": "function"
    },
    {
      "inputs": [
        {
          "internalType": "address",
          "name": "newOwner",
          "type": "address"
        }
      ],
      "name": "transferOwnership",
      "outputs": [],
      "stateMutability": "nonpayable",
      "type": "function"
    },
    {
      "inputs": [
        {
          "internalType": "address",
          "name": "_to",
          "type": "address"
        },
        {
          "internalType": "uint256",
          "name": "_amount",
          "type": "uint256"
        }
      ],
      "name": "mint",
      "outputs": [],
      "stateMutability": "nonpayable",
      "type": "function"
    },
    {
      "inputs": [
        {
          "internalType": "address",
          "name": "recipient",
          "type": "address"
        },
        {
          "internalType": "uint256",
          "name": "amount",
          "type": "uint256"
        }
      ],
      "name": "transfer",
      "outputs": [
        {
          "internalType": "bool",
          "name": "",
          "type": "bool"
        }
      ],
      "stateMutability": "nonpayable",
      "type": "function"
    },
    {
      "inputs": [
        {
          "internalType": "address",
          "name": "sender",
          "type": "address"
        },
        {
          "internalType": "address",
          "name": "recipient",
          "type": "address"
        },
        {
          "internalType": "uint256",
          "name": "amount",
          "type": "uint256"
        }
      ],
      "name": "transferFrom",
      "outputs": [
        {
          "internalType": "bool",
          "name": "",
          "type": "bool"
        }
      ],
      "stateMutability": "nonpayable",
      "type": "function"
    },
    {
      "inputs": [],
      "name": "pause",
      "outputs": [],
      "stateMutability": "nonpayable",
      "type": "function"
    },
    {
      "inputs": [],
      "name": "unpause",
      "outputs": [],
      "stateMutability": "nonpayable",
      "type": "function"
    }
  ],
  "bytecode": "0x60806040526a52b7d2dcc80cd2e40000006008553480156200002057600080fd5b5060405180604001604052806009815260200168262623902a37b5b2b760b91b815250604051806040016040528060038152602001624c4c4760e81b815250816003908051906020019062000077929190620001d2565b5080516200008d906004906020840190620001d2565b50506005805460ff1990811660121790915560078054909116905550620000b6600033620000bc565b6200027e565b620000c88282620000cc565b5050565b6000828152600660209081526040909120620000f391839062000c1d62000147821b17901c565b15620000c8576200010362000167565b6001600160a01b0316816001600160a01b0316837f2f8788117e7eff1d82e926ec794901d17c78024a50270940304540a733656f0d60405160405180910390a45050565b60006200015e836001600160a01b0384166200016b565b90505b92915050565b3390565b6000620001798383620001ba565b620001b15750815460018181018455600084815260208082209093018490558454848252828601909352604090209190915562000161565b50600062000161565b60009081526001919091016020526040902054151590565b828054600181600116156101000203166002900490600052602060002090601f0160209004810192826200020a576000855562000255565b82601f106200022557805160ff191683800117855562000255565b8280016001018555821562000255579182015b828111156200025557825182559160200191906001019062000238565b506200026392915062000267565b5090565b5b8082111562000263576000815560010162000268565b611857806200028e6000396000f3fe608060405234801561001057600080fd5b506004361061018e5760003560e01c806370a08231116100de578063a217fddf11610097578063ca15c87311610071578063ca15c873146104e7578063d547741f14610504578063dd62ed3e14610530578063f2fde38b1461055e5761018e565b8063a217fddf14610487578063a457c2d71461048f578063a9059cbb146104bb5761018e565b806370a08231146103ba57806379cc6790146103e05780638456cb591461040c5780639010d07c1461041457806391d148541461045357806395d89b411461047f5761018e565b8063313ce5671161014b5780633f4ba83a116101255780633f4ba83a1461036157806340c10f191461036957806342966c68146103955780635c975abb146103b25761018e565b8063313ce567146102eb57806336568abe1461030957806339509351146103355761018e565b806306fdde0314610193578063095ea7b31461021057806318160ddd1461025057806323b872dd1461026a578063248a9ca3146102a05780632f2ff15d146102bd575b600080fd5b61019b610584565b6040805160208082528351818301528351919283929083019185019080838360005b838110156101d55781810151838201526020016101bd565b50505050905090810190601f1680156102025780820380516001836020036101000a031916815260200191505b509250505060405180910390f35b61023c6004803603604081101561022657600080fd5b506001600160a01b03813516906020013561061a565b604080519115158252519081900360200190f35b610258610638565b60408051918252519081900360200190f35b61023c6004803603606081101561028057600080fd5b506001600160a01b0381358116916020810135909116906040013561063e565b610258600480360360208110156102b657600080fd5b5035610656565b6102e9600480360360408110156102d357600080fd5b50803590602001356001600160a01b031661066b565b005b6102f36106d7565b6040805160ff9092168252519081900360200190f35b6102e96004803603604081101561031f57600080fd5b50803590602001356001600160a01b03166106e0565b61023c6004803603604081101561034b57600080fd5b506001600160a01b038135169060200135610741565b6102e9610794565b6102e96004803603604081101561037f57600080fd5b506001600160a01b0381351690602001356107e3565b6102e9600480360360208110156103ab57600080fd5b50356108df565b61023c6108f3565b610258600480360360208110156103d057600080fd5b50356001600160a01b03166108fc565b6102e9600480360360408110156103f657600080fd5b506001600160a01b038135169060200135610917565b6102e9610971565b6104376004803603604081101561042a57600080fd5b50803590602001356109be565b604080516001600160a01b039092168252519081900360200190f35b61023c6004803603604081101561046957600080fd5b50803590602001356001600160a01b03166109dd565b61019b6109f5565b610258610a56565b61023c600480360360408110156104a557600080fd5b506001600160a01b038135169060200135610a5b565b61023c600480360360408110156104d157600080fd5b506001600160a01b038135169060200135610ac3565b610258600480360360208110156104fd57600080fd5b5035610ad9565b6102e96004803603604081101561051a57600080fd5b50803590602001356001600160a01b0316610af0565b6102586004803603604081101561054657600080fd5b506001600160a01b0381358116916020013516610b49565b6102e96004803603602081101561057457600080fd5b50356001600160a01b0316610b74565b60038054604080516020601f60026000196101006001881615020190951694909404938401819004810282018101909252828152606093909290918301828280156106105780601f106105e557610100808354040283529160200191610610565b820191906000526020600020905b8154815290600101906020018083116105f357829003601f168201915b5050505050905090565b600061062e610627610c32565b8484610c36565b5060015b92915050565b60025490565b600061064b848484610d22565b506001949350505050565b60009081526006602052604090206002015490565b60008281526006602052604090206002015461068e90610689610c32565b6109dd565b6106c95760405162461bcd60e51b815260040180806020018281038252602f81526020018061164f602f913960400191505060405180910390fd5b6106d38282610d9a565b5050565b60055460ff1690565b6106e8610c32565b6001600160a01b0316816001600160a01b0316146107375760405162461bcd60e51b815260040180806020018281038252602f8152602001806117f3602f913960400191505060405180910390fd5b6106d38282610e03565b600061062e61074e610c32565b8461078f856001600061075f610c32565b6001600160a01b03908116825260208083019390935260409182016000908120918c168152925290205490610e6c565b610c36565b61079f6000336109dd565b6107d9576040805162461bcd60e51b815260206004820152600660248201526510b0b236b4b760d11b604482015290519081900360640190fd5b6107e1610ec6565b565b6107ee6000336109dd565b610828576040805162461bcd60e51b815260206004820152600660248201526510b0b236b4b760d11b604482015290519081900360640190fd5b6108306108f3565b15610875576040805162461bcd60e51b815260206004820152601060248201526f14185d5cd8589b194e881c185d5cd95960821b604482015290519081900360640190fd5b60085461088a82610884610638565b90610e6c565b11156108d5576040805162461bcd60e51b815260206004820152601560248201527413585e081b5a5b9d18589b1948195e18d959591959605a1b604482015290519081900360640190fd5b6106d38282610f66565b6108f06108ea610c32565b82611056565b50565b60075460ff1690565b6001600160a01b031660009081526020819052604090205490565b600061094e826040518060600160405280602481526020016117406024913961094786610942610c32565b610b49565b9190611152565b90506109628361095c610c32565b83610c36565b61096c8383611056565b505050565b61097c6000336109dd565b6109b6576040805162461bcd60e51b815260206004820152600660248201526510b0b236b4b760d11b604482015290519081900360640190fd5b6107e16111e9565b60008281526006602052604081206109d6908361126c565b9392505050565b60008281526006602052604081206109d69083611278565b60048054604080516020601f60026000196101006001881615020190951694909404938401819004810282018101909252828152606093909290918301828280156106105780601f106105e557610100808354040283529160200191610610565b600081565b600061062e610a68610c32565b8461078f856040518060600160405280602581526020016117ce6025913960016000610a92610c32565b6001600160a01b03908116825260208083019390935260409182016000908120918d16815292529020549190611152565b6000610acf838361128d565b5060019392505050565b6000818152600660205260408120610632906112a1565b600082815260066020526040902060020154610b0e90610689610c32565b6107375760405162461bcd60e51b81526004018080602001828103825260308152602001806116e86030913960400191505060405180910390fd5b6001600160a01b03918216600090815260016020908152604080832093909416825291909152205490565b610b7f6000336109dd565b610bb9576040805162461bcd60e51b815260206004820152600660248201526510b0b236b4b760d11b604482015290519081900360640190fd5b336001600160a01b0382161415610c07576040805162461bcd60e51b815260206004820152600d60248201526c2173616d65206164647265737360981b604482015290519081900360640190fd5b610c1260008261066b565b6108f0600033610af0565b60006109d6836001600160a01b0384166112ac565b3390565b6001600160a01b038316610c7b5760405162461bcd60e51b81526004018080602001828103825260248152602001806117aa6024913960400191505060405180910390fd5b6001600160a01b038216610cc05760405162461bcd60e51b81526004018080602001828103825260228152602001806116a06022913960400191505060405180910390fd5b6001600160a01b03808416600081815260016020908152604080832094871680845294825291829020859055815185815291517f8c5be1e5ebec7d5bd14f71427d1e84f3dd0314c0f7b2291e5b200ac8c7c3b9259281900390910190a3505050565b6000610d2f8484846112f6565b610acf84610d3b610c32565b61078f85604051806060016040528060288152602001611718602891396001600160a01b038a16600090815260016020526040812090610d79610c32565b6001600160a01b031681526020810191909152604001600020549190611152565b6000828152600660205260409020610db29082610c1d565b156106d357610dbf610c32565b6001600160a01b0316816001600160a01b0316837f2f8788117e7eff1d82e926ec794901d17c78024a50270940304540a733656f0d60405160405180910390a45050565b6000828152600660205260409020610e1b9082611451565b156106d357610e28610c32565b6001600160a01b0316816001600160a01b0316837ff6391f5c32d9c69d2a47ea670b442974b53935d1edc7fd64eb21e047a839171b60405160405180910390a45050565b6000828201838110156109d6576040805162461bcd60e51b815260206004820152601b60248201527f536166654d6174683a206164646974696f6e206f766572666c6f770000000000604482015290519081900360640190fd5b610ece6108f3565b610f16576040805162461bcd60e51b815260206004820152601460248201527314185d5cd8589b194e881b9bdd081c185d5cd95960621b604482015290519081900360640190fd5b6007805460ff191690557f5db9ee0a495bf2e6ff9c91a7834c1ba4fdd244a5e8aa4e537bd38aeae4b073aa610f49610c32565b604080516001600160a01b039092168252519081900360200190a1565b6001600160a01b038216610fc1576040805162461bcd60e51b815260206004820152601f60248201527f45524332303a206d696e7420746f20746865207a65726f206164647265737300604482015290519081900360640190fd5b610fcd6000838361096c565b600254610fda9082610e6c565b6002556001600160a01b0382166000908152602081905260409020546110009082610e6c565b6001600160a01b0383166000818152602081815260408083209490945583518581529351929391927fddf252ad1be2c89b69c2b068fc378daa952ba7f163c4a11628f55a4df523b3ef9281900390910190a35050565b6001600160a01b03821661109b5760405162461bcd60e51b81526004018080602001828103825260218152602001806117646021913960400191505060405180910390fd5b6110a78260008361096c565b6110e48160405180606001604052806022815260200161167e602291396001600160a01b0385166000908152602081905260409020549190611152565b6001600160a01b03831660009081526020819052604090205560025461110a9082611466565b6002556040805182815290516000916001600160a01b038516917fddf252ad1be2c89b69c2b068fc378daa952ba7f163c4a11628f55a4df523b3ef9181900360200190a35050565b600081848411156111e15760405162461bcd60e51b81526004018080602001828103825283818151815260200191508051906020019080838360005b838110156111a657818101518382015260200161118e565b50505050905090810190601f1680156111d35780820380516001836020036101000a031916815260200191505b509250505060405180910390fd5b505050900390565b6111f16108f3565b15611236576040805162461bcd60e51b815260206004820152601060248201526f14185d5cd8589b194e881c185d5cd95960821b604482015290519081900360640190fd5b6007805460ff191660011790557f62e78cea01bee320cd4e420270b5ea74000d11b0c9f74754ebdbfc544b05a258610f49610c32565b60006109d683836114c3565b60006109d6836001600160a01b038416611527565b600061062e61129a610c32565b84846112f6565b60006106328261153f565b60006112b88383611527565b6112ee57508154600181810184556000848152602080822090930184905584548482528286019093526040902091909155610632565b506000610632565b6001600160a01b03831661133b5760405162461bcd60e51b81526004018080602001828103825260258152602001806117856025913960400191505060405180910390fd5b6001600160a01b0382166113805760405162461bcd60e51b815260040180806020018281038252602381526020018061162c6023913960400191505060405180910390fd5b61138b83838361096c565b6113c8816040518060600160405280602681526020016116c2602691396001600160a01b0386166000908152602081905260409020549190611152565b6001600160a01b0380851660009081526020819052604080822093909355908416815220546113f79082610e6c565b6001600160a01b038084166000818152602081815260409182902094909455805185815290519193928716927fddf252ad1be2c89b69c2b068fc378daa952ba7f163c4a11628f55a4df523b3ef92918290030190a3505050565b60006109d6836001600160a01b038416611543565b6000828211156114bd576040805162461bcd60e51b815260206004820152601e60248201527f536166654d6174683a207375627472616374696f6e206f766572666c6f770000604482015290519081900360640190fd5b50900390565b815460009082106115055760405162461bcd60e51b815260040180806020018281038252602281526020018061160a6022913960400191505060405180910390fd5b82600001828154811061151457fe5b9060005260206000200154905092915050565b60009081526001919091016020526040902054151590565b5490565b600081815260018301602052604081205480156115ff578354600019808301919081019060009087908390811061157657fe5b906000526020600020015490508087600001848154811061159357fe5b6000918252602080832090910192909255828152600189810190925260409020908401905586548790806115c357fe5b60019003818190600052602060002001600090559055866001016000878152602001908152602001600020600090556001945050505050610632565b600091505061063256fe456e756d657261626c655365743a20696e646578206f7574206f6620626f756e647345524332303a207472616e7366657220746f20746865207a65726f2061646472657373416363657373436f6e74726f6c3a2073656e646572206d75737420626520616e2061646d696e20746f206772616e7445524332303a206275726e20616d6f756e7420657863656564732062616c616e636545524332303a20617070726f766520746f20746865207a65726f206164647265737345524332303a207472616e7366657220616d6f756e7420657863656564732062616c616e6365416363657373436f6e74726f6c3a2073656e646572206d75737420626520616e2061646d696e20746f207265766f6b6545524332303a207472616e7366657220616d6f756e74206578636565647320616c6c6f77616e636545524332303a206275726e20616d6f756e74206578636565647320616c6c6f77616e636545524332303a206275726e2066726f6d20746865207a65726f206164647265737345524332303a207472616e736665722066726f6d20746865207a65726f206164647265737345524332303a20617070726f76652066726f6d20746865207a65726f206164647265737345524332303a2064656372656173656420616c6c6f77616e63652062656c6f77207a65726f416363657373436f6e74726f6c3a2063616e206f6e6c792072656e6f756e636520726f6c657320666f722073656c66a26469706673582212207c958b5cb6f945fad73294b17937931f1971d2ae35f7d5e7d5cfb8ca753fbcaf64736f6c63430007040033",
  "immutableReferences": {},
  "source": "// SPDX-License-Identifier: MIT\r\npragma solidity >=0.4.22 <0.9.0;\r\n\r\nimport \"@openzeppelin/contracts/token/ERC20/ERC20.sol\";\r\nimport \"@openzeppelin/contracts/token/ERC20/ERC20Burnable.sol\";\r\nimport \"@openzeppelin/contracts/utils/Pausable.sol\";\r\nimport \"@openzeppelin/contracts/access/AccessControl.sol\";\r\nimport \"@openzeppelin/contracts/math/SafeMath.sol\";\r\n\r\ncontract LLG_Token is ERC20, AccessControl, ERC20Burnable, Pausable {\r\n    using SafeMath for uint256;\r\n\r\n    uint256 internal  _maxAmountMintable = 100000000e18;\r\n\r\n\r\n    constructor() ERC20(\"LLG Token\", \"LLG\") {\r\n        _setupRole(DEFAULT_ADMIN_ROLE, msg.sender);\r\n    }\r\n\r\n    modifier onlyAdminRole() {\r\n        require(\r\n            hasRole(DEFAULT_ADMIN_ROLE, msg.sender),\r\n            \"!admin\"\r\n        );\r\n        _;\r\n    }\r\n\r\n    function transferOwnership(address newOwner) public onlyAdminRole {\r\n        require(msg.sender != newOwner, \"!same address\");\r\n        grantRole(DEFAULT_ADMIN_ROLE, newOwner);\r\n        revokeRole(DEFAULT_ADMIN_ROLE, msg.sender);\r\n    }\r\n\r\n    function mint(address _to, uint256 _amount) public onlyAdminRole whenNotPaused {\r\n        require(ERC20.totalSupply().add(_amount) <= _maxAmountMintable, \"Max mintable exceeded\");\r\n        super._mint(_to, _amount);\r\n    }\r\n\r\n    function transfer(address recipient, uint256 amount)\r\n        public\r\n        virtual\r\n        override\r\n        returns (bool)\r\n    {\r\n        super.transfer(recipient, amount);\r\n        return true;\r\n    }\r\n\r\n    function transferFrom(\r\n        address sender,\r\n        address recipient,\r\n        uint256 amount\r\n    ) public virtual override returns (bool) {\r\n        super.transferFrom(sender, recipient, amount);\r\n        return true;\r\n    }\r\n\r\n    function pause() external onlyAdminRole {\r\n        super._pause();\r\n    }\r\n\r\n    function unpause() external onlyAdminRole {\r\n        super._unpause();\r\n    }\r\n}\r\n",
  "sourcePath": "E:\\LlgToken\\src\\contracts\\Llg_Token.sol",
  "compiler": {
    "name": "solc",
    "version": "0.7.4+commit.3f05b770.Emscripten.clang"
  },
  "schemaVersion": "3.4.3",
  "updatedAt": "2021-12-04T04:13:08.156Z",
  "devdoc": {
    "kind": "dev",
    "methods": {
      "allowance(address,address)": {
        "details": "See {IERC20-allowance}."
      },
      "approve(address,uint256)": {
        "details": "See {IERC20-approve}. Requirements: - `spender` cannot be the zero address."
      },
      "balanceOf(address)": {
        "details": "See {IERC20-balanceOf}."
      },
      "burn(uint256)": {
        "details": "Destroys `amount` tokens from the caller. See {ERC20-_burn}."
      },
      "burnFrom(address,uint256)": {
        "details": "Destroys `amount` tokens from `account`, deducting from the caller's allowance. See {ERC20-_burn} and {ERC20-allowance}. Requirements: - the caller must have allowance for ``accounts``'s tokens of at least `amount`."
      },
      "decimals()": {
        "details": "Returns the number of decimals used to get its user representation. For example, if `decimals` equals `2`, a balance of `505` tokens should be displayed to a user as `5,05` (`505 / 10 ** 2`). Tokens usually opt for a value of 18, imitating the relationship between Ether and Wei. This is the value {ERC20} uses, unless {_setupDecimals} is called. NOTE: This information is only used for _display_ purposes: it in no way affects any of the arithmetic of the contract, including {IERC20-balanceOf} and {IERC20-transfer}."
      },
      "decreaseAllowance(address,uint256)": {
        "details": "Atomically decreases the allowance granted to `spender` by the caller. This is an alternative to {approve} that can be used as a mitigation for problems described in {IERC20-approve}. Emits an {Approval} event indicating the updated allowance. Requirements: - `spender` cannot be the zero address. - `spender` must have allowance for the caller of at least `subtractedValue`."
      },
      "getRoleAdmin(bytes32)": {
        "details": "Returns the admin role that controls `role`. See {grantRole} and {revokeRole}. To change a role's admin, use {_setRoleAdmin}."
      },
      "getRoleMember(bytes32,uint256)": {
        "details": "Returns one of the accounts that have `role`. `index` must be a value between 0 and {getRoleMemberCount}, non-inclusive. Role bearers are not sorted in any particular way, and their ordering may change at any point. WARNING: When using {getRoleMember} and {getRoleMemberCount}, make sure you perform all queries on the same block. See the following https://forum.openzeppelin.com/t/iterating-over-elements-on-enumerableset-in-openzeppelin-contracts/2296[forum post] for more information."
      },
      "getRoleMemberCount(bytes32)": {
        "details": "Returns the number of accounts that have `role`. Can be used together with {getRoleMember} to enumerate all bearers of a role."
      },
      "grantRole(bytes32,address)": {
        "details": "Grants `role` to `account`. If `account` had not been already granted `role`, emits a {RoleGranted} event. Requirements: - the caller must have ``role``'s admin role."
      },
      "hasRole(bytes32,address)": {
        "details": "Returns `true` if `account` has been granted `role`."
      },
      "increaseAllowance(address,uint256)": {
        "details": "Atomically increases the allowance granted to `spender` by the caller. This is an alternative to {approve} that can be used as a mitigation for problems described in {IERC20-approve}. Emits an {Approval} event indicating the updated allowance. Requirements: - `spender` cannot be the zero address."
      },
      "name()": {
        "details": "Returns the name of the token."
      },
      "paused()": {
        "details": "Returns true if the contract is paused, and false otherwise."
      },
      "renounceRole(bytes32,address)": {
        "details": "Revokes `role` from the calling account. Roles are often managed via {grantRole} and {revokeRole}: this function's purpose is to provide a mechanism for accounts to lose their privileges if they are compromised (such as when a trusted device is misplaced). If the calling account had been granted `role`, emits a {RoleRevoked} event. Requirements: - the caller must be `account`."
      },
      "revokeRole(bytes32,address)": {
        "details": "Revokes `role` from `account`. If `account` had been granted `role`, emits a {RoleRevoked} event. Requirements: - the caller must have ``role``'s admin role."
      },
      "symbol()": {
        "details": "Returns the symbol of the token, usually a shorter version of the name."
      },
      "totalSupply()": {
        "details": "See {IERC20-totalSupply}."
      },
      "transfer(address,uint256)": {
        "details": "See {IERC20-transfer}. Requirements: - `recipient` cannot be the zero address. - the caller must have a balance of at least `amount`."
      },
      "transferFrom(address,address,uint256)": {
        "details": "See {IERC20-transferFrom}. Emits an {Approval} event indicating the updated allowance. This is not required by the EIP. See the note at the beginning of {ERC20}. Requirements: - `sender` and `recipient` cannot be the zero address. - `sender` must have a balance of at least `amount`. - the caller must have allowance for ``sender``'s tokens of at least `amount`."
      }
    },
    "version": 1
  },
  "userdoc": {
    "kind": "user",
    "methods": {},
    "version": 1
  }
}